:020000020000FC
:0200000009C035
:0200040016C123
:1000120017C104E00EBF0FE50DBF0FEF01BB929AAF
:100022008A98A09AA19AA29AB89AB99ABA9801E023
:1000320003BF01E009BF02E005BF00E40BBF7894F3
:10004200D0E0FD2E73E0E72EFFEFE0E0B29B03C0AD
:10005200829B05C0FBCFEE1568F4EA940DC0EF1643
:1000620048F4E3940EC0D3E0A6D0B299EFCF829BBE
:10007200ED2EECCFEE2CEACF829BF5CFB29BFCCFDC
:10008200E5CFB29BF0CF829BFCCFE0CF552C86D040
:1000920093989198909810D0939A562C7FD09398D9
:1000A2009198909809D0919A572C78D093989198DA
:1000B200909802D0909A0895C09808EF05BB04E08A
:1000C20002BB00E00519D9F001E00519D1F002E008
:1000D2000519C9F003E00519C1F004E00519B9F0EA
:1000E20005E00519B1F006E00519A9F007E00519C8
:1000F200A1F008E0051999F009E0051991F013D073
:10010200089518D0089519D008951DD0089521D0CA
:10011200089524D0089528D008952DD008952FD081
:10012200089535D00895949A959A969A979AC09A76
:10013200AA9A0895959A969A0895949A959AA99A40
:10014200C09A979A0895949A959A969A979AA99A84
:100152000895959A969AAA9AA99A0895949A969A1F
:10016200979AAA9AA99A0895949A969A979AC09A4F
:10017200AA9AA99A0895949A959A969A0895949A01
:10018200959A969A979AC09AAA9AA99A0895949A31
:10019200959A969A979AAA9AA99A089501E0C02EDA
:1001A20001E0B02E0FEFA02EAA94F1F7BA94D1F786
:1001B200CA94B1F7089512E0612F17E0512F1FE0A2
:1001C200412F00004A95E9F75A95C9F76A95A9F7B0
:1001D200089507E2402E00E1302E14D0902E03E065
:1001E200402E08EE302E0ED0802E442404E6302E0F
:1001F20009D0702E0AE0302E05D0602E00E0010DED
:10020200502E089500E01314240408F408951318DE
:1002120024080395F8CF17EE23E0E11610F4E394D7
:100222000895EE18F21610F4F3940895FF18089545
:10023200F894AFB70E2DE02E00E0F02EAFBF189568
:10024200F894AFB71E2C2F2CC4DF20DFAFBF189558
:00000001FF
